:100000000C9463000C948B000C948B000C948B006C
:100010000C948B000C948B000C948B000C948B0034
:100020000C948B000C948B000C948B000C948B0024
:100030000C948B000C948B000C948B000C948B0014
:100040000C946D030C948B000C94DD030C94B7039B
:100050000C948B000C948B000C948B000C948B00F4
:100060000C948B000C948B000000000024002700EF
:100070002A0000000000250028002B0000000000DE
:1000800023002600290004040404040404040202DA
:100090000202020203030303030301020408102007
:1000A0004080010204081020010204081020000012
:1000B0000008000201000003040700000000000027
:1000C00000000F04620711241FBECFEFD8E0DEBF8F
:1000D000CDBF23E0AEE5B2E001C01D92A338B20768
:1000E000E1F712E0A0E0B1E0EAE7F3E102C0059039
:1000F0000D92AE35B107D9F710E0C2E6D0E004C0EA
:100100002197FE010E94A507C136D107C9F70E94B9
:10011000C4040C94B0090C94000096E0899FD001AF
:100120001124A05FBC4F90967C936E935F9791E0F3
:1001300091969C93919790917C03E0917D03F0912F
:100140007E03992339F0309751F0811108C08091D6
:100150002C0304C0309719F05C968C910994089593
:10016000CF92DF92EF92FF920F931F9396E0899FB9
:10017000F0011124E05FFC4F11A2278D30A1213046
:10018000310539F158F02230310509F447C02330E8
:10019000310509F04FC060E070E044C0662309F407
:1001A00049C061E070E00E948D002FB7F894809103
:1001B000630290916402A0916502B09166022FBF24
:1001C0008093680390936903A0936A03B0936B03D1
:1001D00031C09FB7F894C0906302D0906402E09061
:1001E0006502F09066029FBF009168031091690359
:1001F00020916A0330916B03C01AD10AE20AF30A14
:1002000000917A0310917B0320E030E00C151D056E
:100210002E053F0518F462E070E004C061110AC0C9
:1002200063E070E01F910F91FF90EF90DF90CF900F
:100230000C948D001F910F91FF90EF90DF90CF9065
:100240000895833081F028F4813099F08230A1F054
:1002500008958730A9F08830B9F08430D1F48091C6
:1002600080008F7D03C0809180008F778093800015
:10027000089584B58F7702C084B58F7D84BD0895BD
:100280008091B0008F7703C08091B0008F7D809304
:10029000B0000895CF93DF93282F30E0F901E255A5
:1002A000FF4F8491F901E656FF4FD491F901EA57C7
:1002B000FF4FC491CC2391F081110E942101EC2FBA
:1002C000F0E0EE0FFF1FE458FF4FA591B491EC91C1
:1002D000ED2381E090E021F480E002C080E090E036
:1002E000DF91CF9108951F93CF93DF93282F30E0B4
:1002F000F901E255FF4F8491F901E656FF4FD49181
:10030000F901EA57FF4FC491CC23C1F0162F811198
:100310000E942101EC2FF0E0EE0FFF1FEE58FF4F7F
:10032000A591B4919FB7F894111104C08C91D09508
:10033000D82302C0EC91DE2BDC939FBFDF91CF91DD
:100340001F910895CF93DF9390E0FC01E656FF4F95
:100350002491FC01EA57FF4F8491882361F190E0DA
:10036000880F991FFC01E859FF4FC591D491FC01FA
:10037000EE58FF4FA591B491611109C09FB7F89451
:100380008881209582238883EC912E230BC06230D4
:1003900061F49FB7F8948881322F30958323888346
:1003A000EC912E2B2C939FBF06C08FB7F894E88159
:1003B0002E2B28838FBFDF91CF910895862F642F36
:1003C0000C94A201862F642F0C947301862F0C9439
:1003D0004A01CF92DF92EF92FF920F931F93CF9338
:1003E000DF936C017A018B01C0E0D0E0CE15DF0510
:1003F00081F0D8016D918D01D601ED91FC910190B4
:10040000F081E02DC6010995892B11F02196EECFE0
:100410007E01C701DF91CF911F910F91FF90EF9067
:10042000DF90CF900895089580E090E00895FC015A
:10043000538D448D252F30E0842F90E0821B930B49
:10044000541710F0CF96089501970895FC01918DEF
:10045000828D981761F0828DDF01A80FB11D5D9626
:100460008C91928D9F5F9F73928F90E008958FEF94
:100470009FEF0895FC01918D828D981731F0828D48
:10048000E80FF11D858D90E008958FEF9FEF08959F
:10049000FC01918D228D892F90E0805C9F4F821B03
:1004A00091098F739927089587E692E00E94480288
:1004B00021E0892B09F420E0822F0895FC01848D2E
:1004C000DF01A80FB11DA35ABF4F2C91848D90E07E
:1004D00001968F739927848FA689B7892C93A08959
:1004E000B1898C91837080648C93938D848D9813E3
:1004F00006C00288F389E02D80818F7D8083089576
:10050000EF92FF920F931F93CF93DF93EC0181E063
:10051000888F9B8D8C8D981305C0E889F98980811F
:1005200085FD26C0F62E0B8D10E00F5F1F4F0F7359
:100530001127E02E8C8DE8120CC00FB607FCFACF05
:10054000E889F989808185FFF5CFCE010E945E029E
:10055000F1CF8B8DFE01E80FF11DE35AFF4FF082C2
:100560009FB7F8940B8FEA89FB89808180620AC06B
:100570009FB7F894EE89FF896083E889F9898081C3
:100580008370806480839FBF81E090E0DF91CF9192
:100590001F910F91FF90EF900895CF93DF93EC019F
:1005A000888D8823C9F0EA89FB89808185FD05C093
:1005B000A889B9898C9186FD0FC00FB607FCF5CFCD
:1005C000808185FFF2CFA889B9898C9185FFEDCF15
:1005D000CE010E945E02E7CFDF91CF91089580E0C7
:1005E00090E0892B29F00E94540281110C940000A4
:1005F0000895009769F0FC0101900020E9F7319718
:10060000AF01481B590BBC0187E692E00C94E9014D
:1006100080E090E00895CF93DF930E94F902EC010F
:1006200085E391E00E94F9028C0F9D1FDF91CF912D
:1006300008950E9492090F931F93CF93DF93EC01CB
:1006400088819981009729F02A813B8126173707F5
:1006500088F48B016F5F7F4F0E94CC08009761F098
:10066000998388831B830A832C813D81232B11F47A
:10067000FC01108281E001C080E0DF91CF911F91E9
:100680000F910895EF92FF920F931F93CF93DF93F3
:10069000EC017B018A01BA010E941B032881398188
:1006A00081110DC02115310519F0C9010E944308BF
:1006B000198218821D821C821B821A8206C01D8329
:1006C0000C83B701C9010E94A909CE01DF91CF9126
:1006D0001F910F91FF90EF9008951F920F920FB608
:1006E0000F9211242F933F938F939F93AF93BF93B8
:1006F0008091630290916402A0916502B0916602BC
:100700003091620223E0230F2D3720F40196A11DC2
:10071000B11D05C026E8230F0296A11DB11D20932F
:1007200062028093630290936402A0936502B09387
:10073000660280915E0290915F02A0916002B0918A
:1007400061020196A11DB11D80935E0290935F022C
:10075000A0936002B0936102BF91AF919F918F917E
:100760003F912F910F900FBE0F901F9018951F92E1
:100770000F920FB60F9211242F933F934F935F93D5
:100780006F937F938F939F93AF93BF93EF93FF9359
:1007900087E692E00E945E02FF91EF91BF91AF91D8
:1007A0009F918F917F916F915F914F913F912F9189
:1007B0000F900FBE0F901F9018951F920F920FB6BB
:1007C0000F9211242F938F939F93EF93FF93E091B8
:1007D0007702F09178028081E0917D02F0917E02B3
:1007E00082FD12C09081809180028F5F8F73209173
:1007F0008102821751F0E0918002F0E0E959FD4F4B
:10080000958F8093800201C08081FF91EF919F912D
:100810008F912F910F900FBE0F901F9018951092EF
:100820006A021092690288EE93E0A0E0B0E0809343
:100830006B0290936C02A0936D02B0936E028DE1F7
:1008400091E0909368028093670285EC90E090932A
:1008500074028093730284EC90E09093760280930C
:10086000750280EC90E0909378028093770281EC9F
:1008700090E090937A028093790282EC90E09093DA
:100880007C0280937B0286EC90E090937E028093C2
:100890007D021092800210928102109282021092C8
:1008A00083021092120310921603109215031092F5
:1008B00017038FE291E09093110380931003E0E11E
:1008C000F3E0148E10A2178E11A2369683E0EC345A
:1008D000F807B9F783E091E0909373038093720374
:1008E00080E091E0909375038093740384E080939B
:1008F000760383E08093770387E091E09093710320
:10090000809370038AE090E090937903809378035A
:1009100084EF91E090937B0380937A0310927E039F
:1009200010927D0310926C0310926D0310926E036F
:1009300010926F0310927C0310920B0310920A0323
:1009400010920D0310920C0310920F0310920E03DD
:1009500040E050E067E371E08AE093E00E944203E8
:1009600010920503109204031092070310920603DD
:10097000109209031092080342E050E068E371E02E
:1009800084E093E00C944203CF93DF9300D0CDB783
:10099000DEB7789484B5826084BD84B5816084BDFF
:1009A00085B5826085BD85B5816085BD80916E000D
:1009B000816080936E00109281008091810082603E
:1009C000809381008091810081608093810080917B
:1009D00080008160809380008091B100846080936A
:1009E000B1008091B00081608093B00080917A0066
:1009F000846080937A0080917A00826080937A008C
:100A000080917A00816080937A0080917A0080687A
:100A100080937A001092C10061E082E10E94A201FD
:100A200061E081E10E94A20161E080E10E94A201F7
:100A300061E08FE00E94A20161E08DE00E94A201CE
:100A400060E082E00E94A20160E083E00E94A201D7
:100A500060E084E00E94A20161E08DE00E94A201BA
:100A600060E08DE00E947301E0917702F0917802DE
:100A700082E08083E0917302F09174021082E09131
:100A80007502F09176028FEC808310927F02E091E4
:100A90007B02F0917C0286E08083E0917902F09104
:100AA0007A02808180618083E0917902F0917A02FC
:100AB000808188608083E0917902F0917A02808160
:100AC00080688083E0917902F0917A0280818F7D45
:100AD00080838BE391E00E940B038EE591E00E94FE
:100AE0000B0389E791E00E940B03412C512C32014A
:100AF0004394AA24AA94BA2C21E020937C038FB7B4
:100B0000F894409163025091640260916502709183
:100B100066028FBF80916C0390916D03A0916E036C
:100B2000B0916F03481B590B6A0B7B0B80917803C4
:100B300090917903A0E0B0E084179507A607B70766
:100B400008F0EAC010E080917603181710F0312CFD
:100B500042C0E0917203F0917303E10FF11D62E076
:100B600080810E94A2011F5FEECF022D10E0E09174
:100B70007203F0917303E00FF11F80810E944A011C
:100B80000C5F1F4F000F111FF801E05FFC4F892B16
:100B900009F04BC0808191818829992991838083B4
:100BA000239480917603281600F3E0917403F0916A
:100BB0007503EE0DFF1D61E080810E94730180913D
:100BC000740390917503FC01EE0DFF1D60E08081C0
:100BD0000E94A201339480917703381658F5E32CD4
:100BE000F12CE0917403F0917503EE0DFF1D61E0AF
:100BF00080810E94A201E0917403F0917503EE0DD3
:100C0000FF1D60E080810E947301D301C201032CAB
:100C100004C0880F991FAA1FBB1F0A94D2F74C016A
:100C20006C01C094D094212CBCCF808191818C2107
:100C30009D21B4CF00E113E0F801878D90A1892BAD
:100C400021F4148EB68EA58E11A2369633E0EC34C4
:100C5000F30799F7D12C80917603D81670F5C12C43
:100C6000ED2CF12CC701880F991FFC01E85EFC4FA9
:100C70007F0120917703C216F0F4F7014081518182
:100C80000C2C02C0569547950A94E2F7642F6170C8
:100C9000D29E900111242C0D311DE0E1F3E080E0A3
:100CA000A58DB68D2A173B0709F4F0C08F5F3696E5
:100CB0008A30B1F7CEC0D394CECF80E0F80191A1B5
:100CC000911181E00A5F1F4FF3E00C341F07B1F769
:100CD0009FB7F8944091630250916402609165025D
:100CE000709166029FBF40936C0350936D036093B5
:100CF0006E0370936F03882379F08091310388230A
:100D000059F080912F0390913003019729F41091AD
:100D10002C03111104C09AC010927C0397C08CE977
:100D200091E00E94F902612F87E692E00E94800222
:100D300085E391E00E94F902133259F440E050E05B
:100D400067E371E08AE093E00E94420380EB91E068
:100D50007BC01A3219F481ED91E076C019831A82B2
:100D600000910E0310910F030F5F1F4FB8018AE02F
:100D700093E00E941B03882399F020910A0330918D
:100D80000B0380910E0390910F03BE016F5F7F4FA5
:100D9000820F931F0E94A90910930F0300930E0363
:100DA00086EF91E00E94F90240910E0350910F03EB
:100DB00060910A0370910B0387E692E00E94E901BB
:100DC00085E391E00E94F90280910E0390910F0358
:100DD0000297E1F58091080390910903029709F0C9
:100DE00066C080910A0390910B0360910403709197
:100DF0000503009719F06115710559F46115710526
:100E000009F44EC0FB01808190E091958195910994
:100E100002C00E94A009892B09F049C086E292E035
:100E20000E940B0361E08DE00E94730185E392E074
:100E30000E940B0340E050E067E371E08AE093E03A
:100E40000E94420384E092E00E940B030E94EF02A2
:100E500053CE40FF1DC0E0E1F3E080E090E0448D20
:100E6000411118C0E0917003F0917103E20FF31F7C
:100E7000408156E0589FF001599FF00D1124E05F2A
:100E8000FC4F448F368F258F10A2178E0E94B00022
:100E9000C394EFCE019636968A30910501F7F8CFCC
:100EA000009709F4BBCFFC01808190E0B4CF80E4CF
:100EB00092E00E940B0360E08DE00E94730181E5E7
:100EC00092E0B6CF80910403909105030E944308FD
:100ED00080910A0390910B030C9443082F923F9248
:100EE0004F925F926F927F928F929F92AF92BF923A
:100EF000CF92DF92EF92FF920F931F93CF93DF93E6
:100F0000CDB7DEB7CA1BDB0B0FB6F894DEBF0FBE42
:100F1000CDBF09942A88398848885F846E847D848F
:100F20008C849B84AA84B984C884DF80EE80FD8091
:100F30000C811B81AA81B981CE0FD11D0FB6F89407
:100F4000DEBF0FBECDBFED010895EE0FFF1F059070
:100F5000F491E02D09940F931F93CF93DF93823088
:100F6000910510F482E090E0E0918103F09182031A
:100F700020E030E0A0E0B0E0309719F140815181ED
:100F80000281138148175907C8F08417950769F43F
:100F9000109731F012960C93129713961C9327C05A
:100FA000009381031093820322C02115310519F0AB
:100FB0004217530718F49A01BD01EF01DF01F80150
:100FC000DBCF21153105F9F0281B390B2430310511
:100FD00080F48A819B816115710521F0FB01938367
:100FE000828304C09093820380938103FE01329632
:100FF00044C0FE01E20FF31F819391932250310907
:10100000398328833AC020917F0330918003232BBA
:1010100041F4209115013091160130938003209303
:101020007F0320911301309114012115310541F402
:101030002DB73EB74091170150911801241B350B75
:10104000E0917F03F0918003E217F307A0F42E1BD9
:101050003F0B2817390778F0AC014E5F5F4F24171C
:10106000350748F04E0F5F1F5093800340937F0376
:101070008193919302C0E0E0F0E0CF01DF91CF9146
:101080001F910F910895CF93DF93009709F481C0CA
:10109000FC01329713821282A0918103B0918203E6
:1010A000109781F420813181820F931F20917F035B
:1010B000309180032817390751F5F0938003E093AE
:1010C0007F0367C0ED0120E030E0CE17DF0740F47A
:1010D0004A815B819E0141155105F1F0EA01F5CF8E
:1010E000D383C28340815181840F951FC817D907CC
:1010F00059F488819981840F951F0296918380838A
:101100008A819B81938382832115310529F4F09391
:101110008203E09381033DC0E901FB83EA834991A7
:101120005991C40FD51FEC17FD0761F4808191819F
:10113000840F951F0296E9019983888382819381A8
:101140009B838A83E0E0F0E012968D919C91139747
:10115000009719F0FD01DC01F7CF8D919C9111975B
:101160009D012E5F3F4F820F931F20917F0330918F
:1011700080032817390769F4309729F41092820305
:101180001092810302C013821282B0938003A09355
:101190007F03DF91CF910895A0E0B0E0E2EDF8E0A9
:1011A0000C947207EC01009721F4CB010E94AB076D
:1011B000B4C0FC01E60FF71F9C0122503109E21771
:1011C000F30708F4A8C0D9010D911C9111970617D7
:1011D0001707B0F00530110508F49BC0C80104974B
:1011E0008617970708F495C002501109061B170BC4
:1011F000019311936D937C93CF010E94430889C0A2
:101200005B01A01AB10A4C01800E911EA0918103CE
:10121000B0918203612C712CE12CF12C109709F410
:1012200046C08D919C911197A815B905B1F56C0137
:1012300042E0C40ED11CCA14DB0478F14C018A18B8
:101240009B08640142E0C40ED11C1296BC90129718
:101250001396AC91B5E0CB16D10440F0B282A383D3
:1012600091828082D9016D937C9309C00E5F1F4FDC
:10127000800F911FF90191838083EB2DFA2FE114E8
:10128000F10431F0D7011396FC93EE93129741C00D
:10129000F0938203E09381033CC06816790608F45A
:1012A0003C017D0112960D90BC91A02DB7CF80918D
:1012B0007F039091800388169906E1F466167706FD
:1012C000C8F48091130190911401009741F48DB7F7
:1012D0009EB74091170150911801841B950BE81798
:1012E000F907C8F4F0938003E0937F03F901718359
:1012F00060830FC0CB010E94AB077C01009759F0BF
:10130000A801BE010E949709CE010E944308C701AF
:1013100004C0CE0102C080E090E0CDB7DEB7EEE0C1
:101320000C948E0781E090E0F8940C94B009FB01D6
:10133000DC0102C001900D9241505040D8F7089551
:10134000FB01DC018D91019080190110D9F3990BFB
:101350000895FB01DC0101900D920020E1F7089552
:1013600010E0C2E6D0E004C0FE010E94A50721966D
:0A137000C336D107C9F7F894FFCF88
:10137A000203040F1011123132333435363738393B
:10138A002A3023000083038000000000008002E965
:10139A00011702CD02480226023A0200000000DECE
:1013AA0001E201E6010D0A003233005369737465E4
:1013BA006D6120696E69636961646F2E204167758A
:1013CA006172646520656E74726164612E0044699D
:1013DA006769746520612073656E6861206E6F208D
:1013EA007465636C61646F2E00557365202723272B
:1013FA00207061726120617061676172206120737F
:10140A00656E686120617475616C2E005465636C49
:10141A0061207072657373696F6E6164613A20004E
:10142A0053656E686120617061676164612E204452
:10143A006967697465206E6F76616D656E74652E75
:10144A00005465636C6120272A27206EC3A36F208E
:10145A007574696C697A616461206E6F206D6F6D55
:10146A00656E746F2E0053656E68612061747561D4
:10147A006C3A200053656E68612072657365746109
:10148A0064612E20446967697465206E6F76616DA8
:10149A00656E74652E0053656E686120636F7272A3
:1014AA0065746121004C454420616365736F2E00A9
:1014BA0053656E686120696E636F7272657461212B
:0E14CA00004C4544206170616761646F2E0024
:107800000C94343C0C94513C0C94513C0C94513CE1
:107810000C94513C0C94513C0C94513C0C94513CB4
:107820000C94513C0C94513C0C94513C0C94513CA4
:107830000C94513C0C94513C0C94513C0C94513C94
:107840000C94513C0C94513C0C94513C0C94513C84
:107850000C94513C0C94513C0C94513C0C94513C74
:107860000C94513C0C94513C11241FBECFEFD8E036
:10787000DEBFCDBF11E0A0E0B1E0ECE9FFE702C060
:1078800005900D92A230B107D9F712E0A2E0B1E065
:1078900001C01D92AD30B107E1F70E942D3D0C945F
:1078A000CC3F0C94003C982F959595959595959582
:1078B000905D8F708A307CF0282F295A8091C0000B
:1078C00085FFFCCF9093C6008091C00085FFFCCF60
:1078D0002093C6000895282F205DF0CF982F809127
:1078E000C00085FFFCCF9093C6000895EF92FF92F1
:1078F0000F931F93EE24FF2487018091C00087FD22
:1079000017C00894E11CF11C011D111D81E4E8164B
:1079100082E4F8068FE0080780E0180770F3E09132
:107920000401F091050109958091C00087FFE9CF1E
:107930008091C6001F910F91FF90EF9008950E94D3
:10794000763C982F8091C00085FFFCCF9093C600B5
:1079500091362CF490330CF09053892F089597555D
:10796000892F08951F930E949F3C182F0E949F3CCF
:107970001295107F810F1F9108951F93182F882350
:1079800021F00E94763C1150E1F71F9108951F935A
:10799000182F0E94763C803249F0809103018F5F5E
:1079A000809303018530C1F01F9108958091C0003C
:1079B00085FFFCCF84E18093C6008091C00085FFE5
:1079C000FCCF1093C6008091C00085FFFCCF80E102
:1079D0008093C6001F910895E0910401F091050184
:1079E00009951F9108950E94763C803241F0809164
:1079F00003018F5F80930301853081F008958091AA
:107A0000C00085FFFCCF84E18093C6008091C00058
:107A100085FFFCCF80E18093C6000895E0910401CA
:107A2000F09105010995089540E951E08823A1F0FE
:107A30002D9A28EE33E0FA013197F1F721503040CA
:107A4000D1F72D9828EE33E0FA013197F1F7215064
:107A50003040D1F7815061F708953F924F925F9285
:107A60006F927F928F929F92AF92BF92CF92DF924E
:107A7000EF92FF920F931F93CF93DF93000080E16B
:107A80008093C4001092C50088E18093C10086E015
:107A90008093C2005098589A259A81E00E94143D24
:107AA00024E1F22E9EE1E92E85E9D82E0FE0C02ECA
:107AB00010E1B12EAA24A394B1E49B2EA6E58A2E50
:107AC000F2E57F2EE0E26E2E79E4572E63E5462E36
:107AD00050E5352E0E94763C8033B1F18133B9F107
:107AE000803409F46FC0813409F476C0823409F41B
:107AF00085C0853409F488C0803531F1823521F1A3
:107B0000813511F1853509F485C0863509F48DC0BC
:107B1000843609F496C0843709F403C1853709F423
:107B200072C1863709F466C0809103018F5F80932C
:107B30000301853079F6E0910401F0910501099582
:107B40000E94763C803351F60E94F33CC3CF0E94E2
:107B5000763C803249F78091C00085FFFCCFF092DF
:107B6000C6008091C00085FFFCCF9092C600809136
:107B7000C00085FFFCCF8092C6008091C00085FFC9
:107B8000FCCF7092C6008091C00085FFFCCF609250
:107B9000C6008091C00085FFFCCF5092C600809146
:107BA000C00085FFFCCF4092C6008091C00085FFD9
:107BB000FCCF3092C6008091C00085FFFCCFB09210
:107BC000C60088CF0E94763C863808F4BDCF0E945C
:107BD000763C0E94F33C7ECF0E94763C803809F4CC
:107BE0009CC0813809F40BC1823809F43CC1883942
:107BF00009F48FC080E00E94C73C6CCF84E10E94F2
:107C0000BD3C0E94F33C66CF85E00E94BD3C0E94D3
:107C1000F33C60CF0E94763C809306010E94763C44
:107C2000809307010E94F33C55CF0E94763C80333D
:107C300009F41DC183E00E94BD3C80E00E94C73C66
:107C400049CF0E94763C809309020E94763C809343
:107C5000080280910C028E7F80930C020E94763C79
:107C6000853409F415C18091080290910902892B8D
:107C700089F000E010E00E94763CF801E85FFE4FDA
:107C800080830F5F1F4F80910802909109020817AF
:107C9000190788F30E94763C803209F045CF809125
:107CA0000C0280FF01C16091060170910701660F0F
:107CB000771F7093070160930601A0910802B091AD
:107CC00009021097C9F0E8E0F1E09B01AD014E0F09
:107CD0005F1FF999FECF32BD21BD819180BDFA9A17
:107CE000F99A2F5F3F4FE417F50799F76A0F7B1F4B
:107CF00070930701609306018091C00085FFFCCF5F
:107D0000F092C6008091C00085FFFCCFB092C60003
:107D1000E1CE83E00E94C73CDDCE82E00E94C73CFA
:107D2000D9CE0E94763C809309020E94763C8093D3
:107D300008028091060190910701880F991F909386
:107D40000701809306010E94763C853409F4A6C0A1
:107D500080910C028E7F80930C020E94763C8032D0
:107D600009F0B8CE8091C00085FFFCCFF092C6002C
:107D7000609108027091090261157105B9F140E046
:107D800050E080910C02A82FA170B82FB27011C0E2
:107D9000BB2309F45CC0E0910601F0910701319624
:107DA000F0930701E09306014F5F5F4F46175707B7
:107DB000E8F4AA2369F3F999FECF209106013091E6
:107DC000070132BD21BDF89A90B58091C00085FFB2
:107DD000FCCF9093C6002F5F3F4F30930701209355
:107DE00006014F5F5F4F4617570718F38091C00099
:107DF00085FDE5CE8091C00085FFF8CFE0CE81E023
:107E00000E94C73C67CE0E94763C803209F08CCE3F
:107E10008091C00085FFFCCFF092C6008091C00029
:107E200085FFFCCFE092C6008091C00085FFFCCFAB
:107E3000D092C6008091C00085FFFCCFC092C600E2
:107E40008091C00085FFFCCFB092C60043CEE09188
:107E50000601F091070194918091C00085FFFCCF4D
:107E60009093C6009CCF80E10E94C73C33CE0E9415
:107E7000763C0E94763C182F0E94763C112309F430
:107E800083C0113009F484C08FE00E94C73C22CE29
:107E900080910C02816080930C02E5CE80910C02EF
:107EA000816080930C0259CF809107018823880F4D
:107EB000880B8A2180930B02809106019091070123
:107EC000880F991F90930701809306018091080203
:107ED00080FF09C080910802909109020196909359
:107EE000090280930802F894F999FECF1127E091D6
:107EF0000601F0910701C8E0D1E08091080290915D
:107F00000902103091F40091570001700130D9F34B
:107F100003E000935700E89500915700017001308D
:107F2000D9F301E100935700E89509901990009169
:107F3000570001700130D9F301E000935700E89534
:107F40001395103498F011270091570001700130FB
:107F5000D9F305E000935700E895009157000170B0
:107F60000130D9F301E100935700E895329602976A
:107F700009F0C7CF103011F00296E5CF112480919F
:107F8000C00085FFB9CEBCCE8EE10E94C73CA2CD19
:0C7F900085E90E94C73C9ECDF894FFCF0D
:027F9C00800063
:040000030000780081
:00000001FF
